:020000040800F2
:200000000008002001C0000871D4000871D4000871D4000871D4000871D4000871D4000821
:2000200071D4000871D4000871D4000871D4000871D4000871D40008F1E2000841F70008D7
:2000400071D40008411A010871D4000871D4000871D4000871D4000871D4000871D4000821
:2000600071D4000871D4000871D40008D1F1000801F2000831F2000861F2000891F20008C3
:20008000C1F20008F1F20008A1190108A1F8000811F9000871F90008D1F90008C11901081D
:2000A0007111010871D4000871D4000871D40008111A0108E11901085111010871D40008DF
:2000C00071D40008E1FF0008D100010871D4000871D40008B114010871D40008D11401086E
:2000E00071D4000871D4000871D4000871D4000871D4000871D4000871D4000821F30008C9
:2001000071D4000871D4000871D4000871D40008F11401081115010871D4000871D40008D4
:2001200051F3000881F30008B1F30008E1F3000811F4000871D4000871D4000871D400087B
:2001400071D4000871D4000871D40008910E010841F4000871F40008A1F40008311501087A
:2001600071D4000871D4000871D4000871D4000871D4000871D4000871D4000871D4000817
:2001800071D4000871D4000871D4000871D4000871D4000871D4000871D4000871D40008F7
:2001A00071D4000871D4000871D4000871D4000871D4000871D4000871D4000871D40008D7
:2001C000FFFFFFFFFFFFFFFFFFFFFFFFFFFFFFFFFFFFFFFFFFFFFFFFFFFFFFFFFFFFFFFF3F
:020000040800F2
:020000040800F2
:204000000000FFFF0001E8030002E9030000EA034270EB030000EC03C270ED030000EE0339
:20402000420CEF030000F003C270F1030000F2034334F3036000F403C7EAF5036000F6036C
:2040400047EAF703CCCDF8033F4CF9030000FA034396FB038000FC0344BBFD030000FE03C7
:204060004140FF030000000442700104000002044120030400000404411005040001060427
:20408000000007040000080442C8090400000A0442C80B0400000C0442AA0D0400000E04AC
:2040A00042C80F04999A10043E1911040000120400001304333314043F7315048000160420
:2040C00044BB170480001804C4BB190400001A043F801B0400001C043F801D0400001E0470
:2040E0003F801F04000020044270210400002204C270230400002404427025040000260437
:20410000C2702704000028044270290400002A04C2702B0400002C0443162D0480002E043C
:2041200044892F0400003004412031040000320442783304CCCD34043F4C3504400036047F
:20414000479C3704000038044416390401FF3A0402033B0406053C04FF043D0400003E041B
:2041600044FA3F04295F40043C4B4104CCCD4204421D43046000440446EA4504CCCD46049D
:204180003DCC4704000048040000490400014A0400004B0400004C0441A84D0433334E0452
:2041A0003FD34F04000050043F805104333352043FD35304000054043F8055040000560443
:2041C0003F805704348B580437505904CAC15A043D215B04FEEB5C043B315D0447B45E04AD
:2041E0004D015F04CCCD60043D4C610480006204450963047C0064044892650400006604F7
:2042000041206704000068044348690400006A0443C86B04CCCD6C043DCC6D04CCCD6E04F8
:204220003DCC6F0400007004000071040000720400007304FF017404FFFF7504FFFF7604C5
:20424000FFFF770400FF78040000790420007A0445CB7B0400007C0400007D0400007E043D
:2042600000007F0400008004000081040000820441C88304CCCD84043DCC8504000286045D
:20428000000087040000880441A0890400008A0440808B0400008C0441208D0400008E04A8
:2042A00044FA8F040041900400009104126F92043A839304000194040000950400C89604C4
:2042C000000097040000980400009904CCCD9A043DCC9B04C28F9C043CF59D0400009E04C6
:2042E00042489F044952A0043A9DA104D70AA2043D23A3040000A4040000A504CCCDA604B4
:204300003E4CA7040000A8040000A9040000AA040000AB0474BCAC043C13AD040000AE0420
:204320000000AF040000B0040000B104CCCDB2043E4CB3040000B4044280B504D70AB60403
:204340003C23B7040000B8040000B904BB99BA043B96BB04D70ABC043D23BD0401F4BE04AF
:204360000000BF04D70AC0043CA3C1040000C2043F00C3040FA0C4040000C5040002C60459
:204380000000C7040010C8040000C9048000CA04453BCB04B800CC044708CD045000CE0442
:2043A00046C3CF044000D0044553D1040000D2040000D30428F6D4043F1CD504000ED604E1
:2043C0000000D7040000D8040000D9040000DA040000DB040000DC040000DD040003DE04E6
:2043E0000000DF040000E00440C0E1040068D0070000D10703E8D2070000D3070000D40781
:204400000000D5070001D6070000D7070032D8070000D9070003DA070701DB070000DC0762
:204420000003DD070000DE070000DF076000E007466AE107999AE2073E19E3070000E407A3
:204440003F80E5070000E6074000E7070000E8073FC0E9070101EA070000EB070000EC07E0
:204460000000ED070000EE070000EF070002F0070000F107CCCDF2073ECCF307CCCDF40742
:204480003E4CF5070001F6070000F7078000F807453BF9070000FA07457AFB075C29FC0751
:2044A0003D8FFD070000FE074040FF070000000800000108999A02083E1903086666040819
:2044C0003F6605080000060840400708000008084000090866660A083F660B0800000C0882
:2044E00040400D0801010E0800000F08000010080000110800001208000013080000140876
:20450000000015080002160800001708999A18083E991908CCCD1A083DCC1B0800011C08E8
:2045200000001D0880001E08453B1F0801F420080000210810002208000E23080001240823
:2045400000002508999A26083E192708CCCD28083ECC2908CCCD2A083E4C2B0880002C0807
:20456000453B2D0800002E0800002F08000030080000310801023208000033088000340874
:20458000453B350800013608000037085C2938083D8F390800003A0840403B0803013C08C1
:2045A00000013D084C033E08C7C63F080100400800004108000042080000430800004408D9
:2045C00000004508000046080000470803E848080000490800004A0841A04B0800004C088B
:2045E00042344D0800004E0800004F080000500800005108666652083F6653080000540810
:204600003F40550800005608417057080000580840A0590800005A0842C85B0800005C087C
:2046200000005D0800005E0841A05F0800006008410061080000620841F0630800006408E3
:20464000000065080000660800006708000068080000690800006A0800006B0800006C08D6
:2046600000006D0800006E0800006F08000070080000710800007208000073080000740876
:20468000000075080000760800007708000078080000790800007A0800007B0803E87C082B
:2046A00000007D0800007E0800007F08000080083F8081080000820842A083080001840814
:2046C0000000850800C8860800008708000088083F808908999A8A083E998B0800008C08C5
:2046E00000008D08CCCD8E083DCC8F08000090080000910800009208000093080000940854
:20470000000095080000960800009708000098080000990800009A0800009B0800009C0895
:2047200000009D0800009E0800009F080000A0080000A1080000A2080000A3080000A40835
:204740000000A5080000A6080000A7080000A80840A0A9084220EB03C220ED03C248F103EE
:2047600042F0F303D800F403C756F503D800F6034756F70342DC090442DC0B04430C0D040D
:20478000430C0F04666614043F66150442202104C2202304420C2504C2482704422029044A
:2047A000C2202B04DFA440043D3E4104570A4204433C4304B800440447084504999A4804DD
:2047C00040D9490400004A04496B580438435904D1B75A043E405B04BD945C043BA55D0488
:2047E0001DD45E044C155F0400008604126FA0043B03A104CCCDA2043E4CA3049BA6AC04AF
:204800003B44AD04B717B0043851B1044100B504CCCDB8043D4CB904AB02940842169508D5
:204820004280B5046A7F40043CBC41049EB8420442E043044CCD4804437049049A395804FA
:2048400037C0590402C95A043DE65B0487EC5C043B585D04BB725E044CAE5F044000F4036F
:20486000C79CF5034000F603479CF7030103DA070003DA076580920842B093087A8094085C
:204880003FEB95083BC4AD043C44AD04126FAC043C83AD043951B1040103DA070003DA07C7
:2048A0000103DA070003DA0751EC40043CB84104DC29420442A64304CCCD48044333490453
:2048C0001448580437BD5904DD595A043DAA5B04E83E5C043B595D04850A5E044CAC5F042E
:2048E0000103DA070003DA07001E9408433F95085000F403C7C3F5035000F60347C3F70300
:204900006666F8033F66F90342F00D0442F00F045F0740043C9841040F5C420443064304A3
:2049200080004804430B490400014A04A51D580437795904C01A5A043DDB5B042C1B5C0440
:204940003B1C5D04F12A5E044D275F04B1007A04491E7B049BA6A4043AC4A5049BA6AC04B5
:204960003B44AD043851B10440C0B5040102C6040000D6070000920800009308CE9894082F
:2049800043799508001E9408433F950874BC40043C934104C28F420442A0430443304904DD
:2049A00000004A04BE485804379659049E455A043DA45B041B545C0413585E044D285F0428
:2049C0000002C604844092084286930801E094084130950800009208428793084E80920859
:2049E00043389308F6D0920843929308B800920841FB930826009408429D95083C80940812
:204A00001AC0940847C09408314094081AC0940831409408260094081AC0940831409408A8
:204A20005F0740043C9841040F5C420443064304430B490400014A04A51D5804377959045D
:204A4000C01A5A043DDB5B042C1B5C04F12A5E044D275F040102C6040000920800009308AA
:204A6000CE9894084379950831409408429D95083C80940826009408314094082600940869
:204A800031409408260094080F80940831409408260094083140940874BC40043C934104B8
:204AA00051EC420442A54304999A48044330490400004A04D3C258043796590449A55A0451
:204AC0003DA95B043CE25C04CC8B5E040002C604B4D0920843A7930865E09208432A930804
:204AE0007DC09208439493080103DA070003DA07112094084303950805E094080040940897
:204B00000B80940805E09408F50094084302950805E09408430395080B8094080040940813
:204B2000FAA09408430295080B809408430395081120940805E094080040940805E09408A8
:204B40000103DA070003DA075F0740043C9841040F5C42044306430480004804430B490421
:204B600000014A04A51D580437795904C01A5A043DDB5B042C1B5C04F12A5E040102C6041B
:204B80000000920800009308CE989408437995085C2940043C8F41045C29420442A94304AF
:204BA000E66648044330490400004A0422DD5804379359046CB55A043DAD5B040002C60439
:204BC000782094084394950810009408419595084270EB03C270ED03C20CF103430CF30345
:204BE0006000F403C76AF5036000F603476AF703CCCDF8033F4CF9034130FF0342AA0D04A6
:204C000042C80F04333314043F7315041B001804C9B7190442702104C2702304C20C270431
:204C200042702904C2702B04154D40043D0C410428F6420442A24304C28F46043DF5470459
:204C4000CCCD4804430A490400014A043F00570471F85804380F590417C25A043DA65B040A
:204C60003EF35C043B8E5D04722C5E044C4A5F04999A60043E9961040000620444FA6304A2
:204C800020007A0445CB7B044952A0043A9DA104126FA2043D83A304D70AA4043AA3A5048F
:204CA0003BC4AD04C5ACB00437A7B1044110B5042000C4040102C6044040D904FBE7DA04B0
:204CC0003DA9DB0401F4D807553F920843539308020C940843709508000094084334950832
:204CE0004220EB03C220ED03C248F10342F0F303D800F403C756F503D800F6034756F70320
:204D00004140FF03430C0D04430C0F04666614043F66150480001804C4BB190442202104ED
:204D2000C2202304C248270442202904C2202B04DFA440043D3E4104570A4204433C4304A1
:204D4000CCCD46043DCC4704999A480440D9490400004A043F805704496B580438435904E7
:204D6000D1B75A043E405B04BD945C043BA55D041DD45E044C155F04CCCD60043D4C61047C
:204D80008000620445096304126FA0043B03A104CCCDA2043E4CA3040000A4040000A504AF
:204DA0003B44AD04B717B0043851B1044100B5040FA0C4040002C6040000D9040000DA040B
:204DC0000000DB040032D8070000920800009308AB02940842169508FFFFFFFFFFFFFFFF78
:204DE000FFFFFFFFFFFFFFFFFFFFFFFFFFFFFFFFFFFFFFFFFFFFFFFFFFFFFFFFFFFFFFFFD3
:204E0000FFFFFFFFFFFFFFFFFFFFFFFFFFFFFFFFFFFFFFFFFFFFFFFFFFFFFFFFFFFFFFFFB2
:204E2000FFFFFFFFFFFFFFFFFFFFFFFFFFFFFFFFFFFFFFFFFFFFFFFFFFFFFFFFFFFFFFFF92
:204E4000FFFFFFFFFFFFFFFFFFFFFFFFFFFFFFFFFFFFFFFFFFFFFFFFFFFFFFFFFFFFFFFF72
:020000040800F2
:020000040800F2
:20C0000072B6334880F3098840F20000CCF200004EF63471CEF200010860BFF34F8FBFF335
:20C020006F8F40F20000C0F2F0004EF68851CEF200010860BFF34F8FBFF36F8F4FF0000069
:20C04000E1EE100A4EF63C71CEF200010860062080F31488BFF36F8F01F0F2F905F0B0FB7C
:20C060004FF055301B491C4A91423CBF41F8040BFAE71A49164A91423CBF41F8040BFAE781
:20C080001749184A184B9A423EBF51F8040B42F8040BF8E700201549154A91423CBF41F83E
:20C0A000040BFAE701F0D4F9124C134DAC4203DA54F8041B8847F9E705F092FB0F4C104DF5
:20C0C000AC4203DA54F8041B8847F9E701F0C8B90010002000000020000800200008002069
:20C0E000186C0408001000200C1C0020101C0020E863012000C0000800C0000800C0000828
:20C1000000C000080000000000000000000000002DE9F04F2DED108AC1F80CD0D0F80CD015
:20C12000BDEC108ABDE8F08F62B62846A047002001F076FC01F0B4FB4EF60453CEF20003AA
:20C140004FF080521A6062B6FEE700000000000081F0004102E000BF83F0004330B54FEA30
:20C1600041044FEA430594EA050F08BF90EA020F1FBF54EA000C55EA020C7FEA645C7FEA0E
:20C18000655C00F0E2804FEA5454D4EB5555B8BF6D420CDD2C4480EA020281EA030382EA78
:20C1A000000083EA010180EA020281EA0303362D88BF30BD11F0004F4FEA01314FF4801C00
:20C1C0004CEA113102D0404261EB410113F0004F4FEA03334CEA133302D0524263EB4303CE
:20C1E00094EA050F00F0A780A4F10104D5F1200E0DDB02FA0EFC22FA05F2801841F100013C
:20C2000003FA0EF2801843FA05F359410EE0A5F120050EF1200E012A03FA0EFC28BF4CF08F
:20C22000020C43FA05F3C01851EBE37101F0004507D54FF0000EDCF1000C7EEB00006EEB59
:20C240000101B1F5801F1BD3B1F5001F0CD349085FEA30004FEA3C0C04F101044FEA4452F1
:20C2600012F5800F80F09A80BCF1004F08BF5FEA500C50F1000041EB045141EA050130BD56
:20C280005FEA4C0C404141EB010111F4801FA4F10104E9D191F0000F04BF01460020B1FAF1
:20C2A00081F308BF2033A3F10B03B3F120020CDA0C3208DD02F1140CC2F10C0201FA0CF0B4
:20C2C00021FA02F10CE002F11402D8BFC2F1200C01FA02F120FA0CFCDCBF41EA0C01904032
:20C2E000E41AA2BF01EB0451294330BD6FEA04041F3C1CDA0C340EDC04F11404C4F1200285
:20C3000020FA04F001FA02F340EA030021FA04F345EA030130BDC4F10C04C4F1200220FA0A
:20C3200002F001FA04F340EA0300294630BD21FA04F0294630BD94F0000F83F4801306BFC3
:20C3400081F480110134013D4EE77FEA645C18BF7FEA655C29D094EA050F08BF90EA020F28
:20C3600005D054EA000C04BF1946104630BD91EA030F1EBF0021002030BD5FEA545C05D1D2
:20C380004000494128BF41F0004130BD14F580043CBF01F5801130BD01F0004545F0FE41E7
:20C3A00041F470014FF0000030BD7FEA645C1ABF194610467FEA655C1CBF0B46024650EA1C
:20C3C000013406BF52EA033591EA030F41F4002130BD00BF90F0000F04BF0021704730B551
:20C3E0004FF4806404F132044FF000054FF0000150E700BF90F0000F04BF0021704730B562
:20C400004FF4806404F1320410F0004548BF40424FF000013EE700BF42004FEAE2014FEA41
:20C4200031014FEA02701FBF12F07F4393F07F4F81F06051704732F07F4208BF704793F06F
:20C440007F4F04BF41F40021704730B54FF4607401F0004521F000411CE700BF50EA0102BB
:20C4600008BF704730B54FF000050AE050EA010208BF704730B511F0004502D5404261EBA0
:20C4800041014FF4806404F132045FEA915C3FF4D8AE4FF003025FEADC0C18BF03325FEA4F
:20C4A000DC0C18BF033202EBDC02C2F1200300FA03FC20FA02F001FA03FE40EA0E0021FA93
:20C4C00002F11444BDE600BF000000000000000070B54FF0FF0C4CF4E06C1CEA11541DBF6D
:20C4E0001CEA135594EA0C0F95EA0C0F00F0DEF82C4481EA030621EA4C5123EA4C5350EA63
:20C50000013518BF52EA033541F4801143F4801338D0A0FB02CE4FF00005E1FB02E506F09A
:20C520000042E0FB03E54FF00006E1FB03569CF0000F18BF4EF0010EA4F1FF04B6F5007FFB
:20C5400064F5407404D25FEA4E0E6D4146EB060642EAC62141EA55514FEAC52040EA5E508E
:20C560004FEACE2EB4F1FD0C88BFBCF5E06F1ED8BEF1004F08BF5FEA500E50F1000041EBC2
:20C58000045170BD06F0004646EA010140EA020081EA0301B4EB5C04C2BFD4EB0C0541EA95
:20C5A000045170BD41F480114FF0000E013C00F3AB8014F1360FDEBF002001F0004170BD25
:20C5C000C4F10004203C35DA0C341BDC04F11404C4F1200500FA05F320FA04F001FA05F227
:20C5E00040EA020001F0004221F0004110EBD37021FA04F642EB06015EEA430E08BF20EA99
:20C60000D37070BDC4F10C04C4F1200500FA04F320FA05F001FA04F240EA020001F00041BC
:20C6200010EBD37041F100015EEA430E08BF20EAD37070BDC4F1200500FA05F24EEA020E9C
:20C6400020FA04F301FA05F243EA020321FA04F001F0004121FA04F220EA020000EBD37019
:20C660005EEA430E08BF20EAD37070BD94F0000F0FD101F00046400041EB010111F4801F24
:20C6800008BF013CF7D041EA060195F0000F18BF704703F00046520043EB030313F4801F16
:20C6A00008BF013DF7D043EA0603704794EA0C0F0CEA135518BF95EA0C0F0CD050EA4106FC
:20C6C00018BF52EA4306D1D181EA030101F000414FF0000070BD50EA410606BF1046194654
:20C6E00052EA430619D094EA0C0F02D150EA013613D195EA0C0F05D152EA03361CBF1046F5
:20C7000019460AD181EA030101F0004141F0FE4141F470014FF0000070BD41F0FE4141F417
:20C72000780170BD70B54FF0FF0C4CF4E06C1CEA11541DBF1CEA135594EA0C0F95EA0C0F70
:20C7400000F0A7F8A4EB050481EA030E52EA03354FEA013100F088804FEA03334FF08055DC
:20C7600045EA131343EA12634FEA022245EA111545EA10654FEA00260EF000419D4208BF28
:20C78000964244F1FD0404F5407402D25B084FEA3202B61A65EB03055B084FEA32024FF4FF
:20C7A00080104FF4002CB6EB020E75EB030E22BFB61A754640EA0C005B084FEA3202B6EB45
:20C7C000020E75EB030E22BFB61A754640EA5C005B084FEA3202B6EB020E75EB030E22BF13
:20C7E000B61A754640EA9C005B084FEA3202B6EB020E75EB030E22BFB61A754640EADC0084
:20C8000055EA060E18D04FEA051545EA16754FEA06164FEAC30343EA52734FEAC2025FEA44
:20C820001C1CC0D111F4801F0BD141EA00014FF000004FF0004CB6E711F4801F04BF014371
:20C840000020B4F1FD0C88BFBCF5E06F3FF6AFAEB5EB030C04BFB6EB020C5FEA500C50F12A
:20C86000000041EB045170BD0EF0004E4EEA113114EB5C04C2BFD4EB0C0541EA045170BDE7
:20C8800041F480114FF0000E013C90E645EA060E8DE60CEA135594EA0C0F08BF95EA0C0FC4
:20C8A0003FF43BAF94EA0C0F0AD150EA01347FF434AF95EA0C0F7FF425AF104619462CE779
:20C8C00095EA0C0F06D152EA03353FF4FDAE1046194622E750EA410618BF52EA43067FF487
:20C8E000C5AE50EA41047FF40DAF52EA43057FF4EBAE12E70000000000000000000000008E
:20C900004FF0FF3C06E000BF4FF0010C02E000BF4FF0010C4DF804CD4FEA410C7FEA6C5CF2
:20C920004FEA430C18BF7FEA6C5C1BD001B050EA410C0CBF52EA430C91EA030F02BF90EA26
:20C94000020F0020704710F1000F91EA030F58BF994208BF90422CBFD8176FEAE37040F011
:20C96000010070474FEA410C7FEA6C5C02D150EA013C07D14FEA430C7FEA6C5CD6D152EA8A
:20C98000033CD3D05DF8040B704700BF8446104662468C461946634600E000BF01B5FFF7EE
:20C9A000B7FF002848BF10F1000F01BD4DF808EDFFF7F4FF0CBF012000205DF808FB00BF7E
:20C9C0004DF808EDFFF7EAFF34BF012000205DF808FB00BF4DF808EDFFF7E0FF94BF012070
:20C9E00000205DF808FB00BF4DF808EDFFF7CEFF94BF012000205DF808FB00BF4DF808ED1E
:20CA0000FFF7C4FF34BF012000205DF808FB00BF4FEA410C7FEA6C5C02D150EA013C0AD136
:20CA20004FEA430C7FEA6C5C02D152EA033C02D14FF0000070474FF001007047000000002F
:20CA40004FEA410212F5001215D211D56FF47873B3EB625212D94FEAC12343F0004343EA29
:20CA6000505311F0004F23FA02F018BF404270474FF00000704750EA013005D111F000402C
:20CA800008BF6FF0004070474FF00000704700BF4FEA4102B2F1E04324BFB3F5001CDCF10E
:20CAA000FE5C0DD901F0004C4FEAC0024CEA5070B2F1004F40EB830008BF20F001007047D9
:20CAC00011F0804F21D113F13872BCBF01F00040704741F480114FEA5252C2F11802C2F160
:20CAE000200C10FA0CF320FA02F018BF40F001004FEAC1234FEAD32303FA0CFC40EA0C0066
:20CB000023FA02F34FEA4303CCE77FEA625307D150EA01331EBF4FF0FE4040F440007047E8
:20CB200001F0004040F0FE4040F40000704700BF844641EA000313F003036DD1403A41D3DF
:20CB400051F8043B40F8043B51F8043B40F8043B51F8043B40F8043B51F8043B40F8043BD9
:20CB600051F8043B40F8043B51F8043B40F8043B51F8043B40F8043B51F8043B40F8043BB9
:20CB800051F8043B40F8043B51F8043B40F8043B51F8043B40F8043B51F8043B40F8043B99
:20CBA00051F8043B40F8043B51F8043B40F8043B51F8043B40F8043B51F8043B40F8043B79
:20CBC000403ABDD2303211D351F8043B40F8043B51F8043B40F8043B51F8043B40F8043B09
:20CBE00051F8043B40F8043B103AEDD20C3205D351F8043B40F8043B043AF9D2043208D001
:20CC0000D2071CBF11F8013B00F8013B01D30B8803806046704700BF082A13D38B078DD0DA
:20CC200010F003038AD0C3F10403D21ADB071CBF11F8013B00F8013B80D331F8023B20F8E6
:20CC4000023B7BE7043AD9D3013A11F8013B00F8013BF9D20B7803704B7843708B7883706A
:20CC600060467047000000000000000000000000EC46A0E8F05F4FF000007047B0E8F05F71
:20CC8000E546080008BF0120704700BF00000000A2EB0300704700BF02780B78012A28BFEE
:20CCA0009A42F5D16DE9044540EA0104CDE902676FF0000C4FEA447212B380EA010414F053
:20CCC000070F6AD100F0070420F0070004F0030521F007014FEAC505F0E8042314F0040FC3
:20CCE000F1E804670CFA05F462EA040266EA04060AD063EA0403624667EA0407664603E084
:20CD0000F0E80423F1E8046782FA4CF582EA0604A4FA8CF46CBB83FA4CF583EA0705A5FA82
:20CD20008CF595B950E9022351E9026782FA4CF582EA0604A4FA8CF483FA4CF583EA07059B
:20CD4000A5FA8CF52543DBD09CB92DBAB5FA85F424F0070427FA04F1DDE9026723FA04F3C4
:20CD600003F0FF0001F0FF01FDE80445A0EB0100704724BAB4FA84F424F0070426FA04F127
:20CD8000DDE9026722FA04F202F0FF0001F0FF01FDE80445A0EB0100704714F0030F3CD1DC
:20CDA00010F0030428D150F8082B51F8083B82FA4CF582EA0305A5FA8CF55DB950F8042C8D
:20CDC00051F8043C82FA4CF582EA0305A5FA8CF5002DE8D02DBAB5FA85F424F0070423FA49
:20CDE00004F122FA04F202F0FF0001F0FF01FDE80445A0EB010070474FEAC40420F00300C5
:20CE000050F8082B21F0030151F8083B0CFA04F462EA040263EA0403C9E710F003041AD0B1
:20CE2000A1EB040120F00300E40750F8042B06D00FD28B785FFAA2F4E41A06D12BB1CB784F
:20CE40005FFAB2F4E41A00D11BB920465DF8104B704701F1040150F8042BCC0721F003010D
:20CE600051F8043B48D824D222F07F4482FA4CF594EA1325A5FA8CF50AD165B951F8043B2B
:20CE800084EA0204B4EB036F0ED150F8042BEBE74FEA132355E035F07F454DD10878FDE8D5
:20CEA0000445C0F1000070474FEA126203F0FF0347E002EA1C4482FA4CF594EA1345A5FA7A
:20CEC0008CF50AD165B951F8043B84EA0204B4EB034F0CD150F8042BEBE74FEA134330E026
:20CEE00015EA1C4528D10B884FEA124229E04FEA124203EA1C4324E002F0FF0482FA4CF521
:20CF000094EA1365A5FA8CF50AD165B951F8043B84EA0204B4EB032F09D150F8042BEBE712
:20CF20004FEA13630DE015F0FF0F05D10B684FEA122223F07F4304E04FF00000FDE8044566
:20CF4000704712BA1BBA82FA4CF482EA0304A4FA8CF5B5FA85F402FA04F203FA04F34FEAE4
:20CF60001260FDE80445A0EB136070470000000090F800F06DE9024520F007016FF0000CC4
:20CF800010F0070491F820F040F049804FF000046FF00700D1E9002391F840F000F10800BC
:20CFA00082FA4CF2A4FA8CF283FA4CF3A2FA8CF34BBBD1E9022382FA4CF200F10800A4FA8E
:20CFC0008CF283FA4CF3A2FA8CF3E3B9D1E9042382FA4CF200F10800A4FA8CF283FA4CF3F4
:20CFE000A2FA8CF37BB9D1E9062301F1200182FA4CF200F10800A4FA8CF283FA4CF3A2FAC5
:20D000008CF3002BC6D0002A04BF04301A4612BAB2FA82F2FDE8024500EBD2007047D1E909
:20D02000002304F00305C4F100004FEAC50514F0040F91F840F00CFA05F562EA05021CBF1B
:20D0400063EA050362464FF00004A9E70000000001F0FF01102A2BDB10F0070F08D010F8D9
:20D06000013B013A8B422DD010F0070F42B3F6D1F0B441EA012141EA014122F007047FF0B3
:20D0800000070023F0E80256083C85EA010586EA010685FA47F5A3FA87F586FA47F6A5FAD6
:20D0A00087F68EB9EED1F0BC01F0FF0102F0070232B110F8013B013A83EA010313B1F8D1F5
:20D0C0000020704701387047002D06BF35460338073815F0010F07D1013015F4807F02BFBB
:20D0E000013015F4C03F0130F0BC0138704700BF4A0011D212F5001211D20DD56FF4787312
:20D10000B3EB62520ED44FEAC12343F0004343EA505323FA02F070474FF00000704750EA82
:20D12000013002D14FF0FF3070474FF00000704753B94AB9002908BF00281CBF4FF0FF315F
:20D140004FF0FF3000F074B9ADF1080C6DE904CE00F006F8DDF804E0DDE9022304B070476D
:20D160002DE9F047089E04468846002B4BD18A42154667D9B2FA82F24AB1C2F1200701FA06
:20D1800002F320FA07F7954047EA030894404FEA154E230CB8FBFEF71FFA85FC0EFB1788E8
:20D1A00043EA084307FB0CF1994209D9EB1807F1FF3080F01B81994240F21881023F2B44AF
:20D1C0005B1AA4B2B3FBFEF00EFB103344EA034400FB0CFCA44509D92C1900F1FF3380F081
:20D1E0000781A44540F2048102382C4440EA0740A4EB0C0400271EB1D4400023C6E900432E
:20D200003946BDE8F0878B4209D9002E00F0EB800027C6E9000138463946BDE8F087B3FA9E
:20D2200083F7002F47D18B4202D3824200F2FA80841A61EB030301209846002EE0D0C6E9DF
:20D240000048DDE702B9FFDEB2FA82F2002A40F08F80491B4FEA154E1FFA85F80127B1FB37
:20D26000FEFC230C0EFB1C1143EA014308FB0CF1994207D9EB180CF1FF3002D2994200F253
:20D28000CD808446591AA3B2B1FBFEF00EFB101443EA044408FB00F8A04507D92C1900F17D
:20D2A000FF3302D2A04500F2B6801846A4EB080440EA0C409FE7C7F1200CBB4022FA0CFE61
:20D2C0004EEA030E01FA07F420FA0CF521FA0CF34FEA1E482543B3FBF8F92C0C08FB1933AD
:20D2E0001FFA8EFA44EA034309FB0AF49C4202FA07F200FA07F10BD91EEB030309F1FF3036
:20D3000080F087809C4240F28480A9F1020973441B1BADB2B3FBF8F008FB103345EA03443F
:20D3200000FB0AFAA24508D91EEB040400F1FF336BD2A24569D90238744440EA0940A0FB8C
:20D340000289A4EB0A044C45C2464B4654D351D0002E69D0B1EB0A0564EB030404FA0CFCC5
:20D36000FD40FC404CEA0505C6E90054002747E7C2F1200320FA03F7954001FA02F021FAD5
:20D3800003F34FEA154E3843010CB3FBFEF71FFA85F80EFB173341EA034107FB08F38B42AE
:20D3A00004FA02F407D9691807F1FF3C2FD28B422DD9023F2944CB1A81B2B3FBFEF00EFBA6
:20D3C000103341EA034100FB08F38B4207D9691800F1FF3C17D28B4215D902382944C91A1D
:20D3E00040EA07473BE73746304609E70746E7E61846FBE64145ABD2B8EB020A69EB0E0241
:20D4000001381346A4E76046E9E7184695E76746D1E781467CE702382C4447E7ACF1020C8D
:20D420002B442FE7384608E73746E9E600000000704700BF00000000000000000000000038
:20D44000704700BF000000000000000000000000704700BF000000000000000000000000E0
:20D46000FEE700BF000000000000000000000000FEE700BF00000000000000000000000064
:20D48000FEE700BF0000000000000000000000001D4B1E4A1E4830B500249C60D9684FF627
:20D4A000FF0529400A43DA60C2681A491A4D42F08072C2600A6842F0010283B00A6083F87F
:20D4C000224000F0EDF800F073F800F051FB00F047FE00F085FE2846402100F0F1F9A5F197
:20D4E000300301229861027762B69B690B49996105F1500000940A4B4FF4EC7100F030FA11
:20D50000084B836103B030BD00ED00E00003FA05F0ED00E0001000E0401C0020700E0408B2
:20D5200081D40008600E0408000000000000000072B6014BD862FEE7101C00200000000035
:20D5400070B5114CA269D37F0BB1013BD377116AE3690E4E01311162A26AB34202F10102EB
:20D56000A26210D09D68013D9D6065B91A68D968DD605660E26162B61869884772B6E36994
:20D580009A68002AF2D070BD101C00202C1C0020034A516853685B1A9842FBD8704700BF63
:20D5A000001000E0000000000000000000000000054B4FF0FF30002103F11C0258629962D5
:20D5C000C3E90722704700BF101C00200000000030B40D4DEC690361A368C260994204D9D8
:20D5E0002468C91AA3688B42FAD36368C0E90043186060608160A3684FF0FF32591AA16058
:20D600006A6230BC704700BF101C002000000000036841689A6830B48568064C2A449A60EF
:20D620000B60056800224FF0FF336960C260636230BC7047101C00200000000000000000E0
:20D6400072B6037F072B0ED8DFE803F0260D0D2208040D08426A936801339360D0E9002321
:20D660001A600268536010B400224FF0FF3481680A4B446202771B689A688A42FBD25A687E
:20D68000C0E900321060586062B65DF8044B7047436A00221A60E6E762B67047101C0020E3
:20D6A000034B0022C3E90033C3E904339A607047101C00200000000000000000000000003B
:20D6C00001460022064B80680A771B689A688242FBD25A680846C1E9003211605960704744
:20D6E000101C0020000000000000000000000000084B99691A6810B408770420C8771068E9
:20D70000186001244360147710465DF8044B9A61FEF7FEBC101C002000000000000000004E
:20D7200030B54B1C87B012D00C4C0D4AA369054601A8FFF74DFF2846FFF7DAFF049B13B1F3
:20D7400001A8FFF765FFA369586A07B030BD034CFFF7CEFFA369586A07B030BD101C002084
:20D7600041D60008000000000000000000000000144B70B49E6985680446B0686162854227
:20D780004FF000020BD822771B689A689542FBD95A68C4E9003214605C6070BC704732773F
:20D7A0001A46126891688842FBD951687160012032600E6056602077314620469C6170BCFA
:20D7C000FEF7A6BC101C00200000000000000000084A93691168DA7F88689B6822B99842DE
:20D7E00034BF002001207047984294BF00200120704700BF101C002000000000000000000E
:20D800000D4B186870B402689C691A60A168536001260425002206779861E57722771B6807
:20D820009A689142FBD95A682146C4E9003214605C6070BCFEF76CBC101C00200000000072
:20D840000C4B186830B402689C691A60A1685360012500220577986122771B689A689142BA
:20D86000FBD35A682146C4E9003214605C6030BCFEF74EBC101C002000000000000000006B
:20D88000044B1A689B6992689B689A4200D87047FFF7D6BF101C0020000000000000000074
:20D8A000034B9B69DB7F0BB1FFF7CABFFFF7A8BF101C0020000000000000000000000000D8
:20D8C00070B40E4C0164022265698283816000220421C177C0E90E2201210262826100F1DB
:20D8E000280600F12C0245610461817728616061C0E90A628164026370BC7047101C002000
:20D90000F0B4124E049D776964390144C160C1E910350F4B0B66022383830023826004256C
:20D920000264C0E90E3301220362836100F1280100F12C03C0E90467C5778277386170613E
:20D9400081628264C0E90B33F0BC7047101C002029C1000800000000000000000000000076
:20D96000F8B51F46044672B664390144134D144B6E69C1600F640B66069F4F640423826045
:20D9800000210264C37701224FF0020C00F1280700F12C03C0E90456A0F81CC0C0E90E11D7
:20D9A000016281618277306187628264C0E90B336861FFF7DDFE62B62046F8BD101C0020C9
:20D9C00029C1000800000000000000000000000008B5014672B60820FFF7A2FE62B608BD8E
:20D9E00038B50E4B9C69A36A606204F12805AB4207D01A68A2621846FFF762FEA36AAB42F3
:20DA0000F7D1637F9B0704D1D4E904231A61226953610F20BDE83840FFF76ABE101C002091
:20DA200072B6FFF7DDBF00BF000000000000000010B5054CA369036002465A620320FFF7CB
:20DA400057FEA369586A10BD101C002000000000054B02469B6921B1036003205A62FFF7E4
:20DA60005FBE4FF0FF307047101C00200000000003682BB10022026018465962FFF720BE60
:20DA8000704700BF00000000000000000000000069B1084B10B4024644689B690420C3E917
:20DAA0000024236053605DF8044BFFF739BE4FF0FF307047101C002000000000000000000A
:20DAC000026890420AD010B41468046003466360104651625DF8044BFFF7F2BD704700BFB8
:20DAE00038B5036898420BD004460D461A682260184654605D62FFF7E3FD23689C42F5D1A2
:20DB000038BD00BF000000000000000000000000014B5B6883607047001000E000000000B8
:20DB20000E4B0F4A5B68C168F0B48468D66F42681B1BD0E904459B1BE61845F100079342CA
:20DB4000026888BF436001319342C0E90467C0E9023138BF0360F0BC704700BF001000E00E
:20DB6000101C002000000000000000000000000010B50C4C86B000234FF0FF3100226846A4
:20DB8000E367CDE9013303930023CDE904230091FFF7BEFF6846FFF7C3FF029BE36706B074
:20DBA00010BD00BF101C00200000000000000000014672B6837F013BDBB2837762B613B975
:20DBC000037F0F2B00D07047437F03F00303012B02D0022B07D07047D0E904231A610269C8
:20DBE000536100F00DBBD0E904231A610269406C536100F075BB00BF0000000000000000B4
:20DC000072B6034B1869837F0133837762B67047101C0020000000000000000000000000C2
:20DC200010B572B6064B04699C421DBFA37F0133A377002462B6FFF7BBFF204610BD00BF31
:20DC4000101C00200000000000000000000000000023C0E900008360704700BF0000000053
:20DC6000F8B5364A83689569002B3FD0A9689A689142044606D91A7F9960062A3BD0072A47
:20DC800015D042B32646234603E09968AA6891422AD31B689C42F8D173680620C5E90063D3
:20DCA0001D6075606C62BDE8F840FFF721BDD3E9000210605E6A18684260324602E0906829
:20DCC000884232D312689642F9D17268C3E9006213607360D6E7D3E9001211601968184650
:20DCE0004A60FFF7EDFCCDE71E46D5E7EB6BC0E90253E863F8BDD3E9000210605E6A1868FD
:20DD000037464260324602E09068884214D312689642F9D17A68A968C3E9007213607B6066
:20DD2000B3689A688A42A6D3ACE716467268C3E9006213607360A5E71746EBE7101C00205D
:20DD400008B572B6FFF78CFF62B608BD00000000144B70B59D6972B60468C368EB63844223
:20DD60001BD0296C4BB11A68934203D09268914238BF1146DB68002BF5D103462268E66B8A
:20DD8000A96020461A605360C3E90246E363FFF797FCFFF775FD62B670BD0023A36062B639
:20DDA00070BD00BF101C0020000000000000000030B472B6064D0468AD690C600024016059
:20DDC000C1E90152C1E9034362B630BC704700BF101C002000000000000000000000000090
:20DDE00072B6024602E08B4205D01A4613688342F9D162B670470B68136062B6704700BF82
:20DE000072B6044B9A69936B23EA0001916362B618407047101C0020000000000000000015
:20DE2000836B027F19430A2A816309D00B2A00D07047436A8B43FBD100234362FFF740BC69
:20DE4000436A1942F8D17047000000000000000070B50468A0420FD006460D46E3682B4390
:20DE6000E36015B12269134203D0D4E90101FFF7D7FF2468A642F1D170BD00BF0000000039
:20DE800008B572B6FFF7CCFFFFF7FAFC62B608BD38B50A4B9D6972B6AB6B13EA000406D1B5
:20DEA000044668620A20FFF723FCAB6B1C4023EA0403AB6362B6204638BD00BF101C0020FD
:20DEC0000D4B70B59D6972B6AB6B13EA00060DD111B962B6304670BD686204460A20FFF7E7
:20DEE0001FFC0028F5DBAB6B03EA040623EA0603AB6362B6304670BD101C002000000000D7
:20DF000030B4029C046200250A4485600261C0E90000C160C0E90511C36130BC704700BF4F
:20DF2000C26800218160C0E905226FF00101FFF7D7BD00BF0000000000000000000000003B
:20DF4000D0E90532934211D0826810B501325C1C826044611970D0E904329A4201D3C368E7
:20DF600043610021FFF7ACFD002010BD8268002AEAD06FF003007047000000000000000069
:20DF800038B50D46044672B6C3692BB1984703E0FFF77EFD002811DBA36829462046002B75
:20DFA000F6D0A169A36825694A1C013BAA42A360A26128BFE368087828BFA36162B638BDBA
:20DFC0002DE9F8430446884691461D46C76972B600262FB12046B84702E0FFF759FDC8B92C
:20DFE000A36829462046002BF7D0A269A368511C013BA161A360137808F8013B2369A2692D
:020000040800F2
:20E000009A4224BFE368A36162B60136B14502D072B6DEE762B63046BDE8F8830000000040
:20E0200030B4029C82608D18C0E90315C0E90734C0E90000C0E9051130BC70470000000027
:20E0400010B4D0E90342121B846144616FF0010182605DF8044BFFF743BD00BF00000000AB
:20E0600070B504460E46154672B603E0FFF710FD002817DBA36829462046002BF6D06269BE
:20E08000A368511C013B6161A3601670D4E904329A4224BFE3686361E36903B1984762B6C9
:20E0A000002070BD62B670BD000000000000000038B5D0E905239A420FD082680569591C78
:20E0C000013282608161A9421C7801D3C36883610021FFF7F5FC204638BD8268002AECD0B4
:20E0E0006FF0020038BD00BF00000000000000002DE9F04704460D4616469946D0F81C8082
:20E1000072B60027A36805F1010A2046F3B16269A368511C013B6161A3602B781370D4E973
:20E1200004329A4224BFE3686361B8F1000F00D0C04762B6013E07F101070ED072B6A368E4
:20E14000554605F1010A2046002BE0D149462046FFF79EFC0028D5D062B63846BDE8F087DD
:20E16000054A064B0648074922F0070223F0070302600B60704700BFEF6301200000022051
:20E180006C1E0020681E00200000000000000000034672B60749084A08681268073323F0E5
:20E1A0000703121A93429ABF1B180B60002062B6704700BF6C1E0020681E0020000000005F
:20E1C000024A034B10681B68C01A7047681E00206C1E0020000000000000000000000000C9
:20E1E000044B054A1A6003F110000022C3E90222FFF72EBD701E002091E100080000000008
:20E20000F8B550F8085C05F110070646A0F1080408353846FFF794FD2B46AB421A6801D0BC
:20E22000A34202D21AB1944201D31346F5E746F8082C56F8042C1C6056F8080CB118814221
:20E240000AD0596801F108021A44944212D03846BDE8F840FFF77CBD4968B05846F8080C7C
:20E2600008320A4446F8042C596801F108021A449442ECD156E902020832114418605960F7
:20E280003846BDE8F840FFF763BD00BF0000000070B50F4C002818BF044604F1100528460D
:20E2A0000E46FFF74DFDA36873B100221446D3E9003001340244002BF9D106B1326028460C
:20E2C000FFF746FD204670BD1A461C46F5E700BF701E002000000000000000000000000067
:20E2E00072B603680B60016062B670470000000080B4074A536823F0010300AF5360EFF355
:20E300000983683383F30988BD465DF8047B704730EF00E000000000000000000000000042
:20E3200098B500AF72B6104B5B681B0501D462B698BDF1EE103AEFF309840C4B4FF0807219
:20E34000DB6844F8083C44F84C2CA4F1680383F30988FFF73DFA18B1054B44F8503C98BDDC
:20E36000044B44F8503C98BD00ED00E030EF00E035C1000838C10008000000000000000066
:20E3800008B501F045F90B4801F0A2FC00F020F800F0BEF800F02CF900F0B2F900F0C0FBA6
:20E3A00000F0CEFB00F0C4FA03F012FABDE8084000F006B830100408000000000000000010
:20E3C00001F0CEB900000000000000000000000001F036BB000000000000000000000000E3
:20E3E00030B40021012400F1180200F11C0300F120050470416000F1240400F12801826197
:20E40000C36100F1080200F11003C0E908548162C0E90222C0E9043330BC704700000000A1
:20E4200010B5044672B602230370416001F020FB0323237062B610BD0000000000000000C2
:20E4400010B5044672B601F04BFB2046012300F8103B6FF00101FFF743FB04F108006FF090
:20E460000101FFF73DFBFFF70BFA62B610BD00BF2DE9F04104460D4690461F4672B600F195
:20E4800008062378042B2946204602D001F050FB40B939463046FFF7FBFA0028F1D062B6E7
:20E4A000BDE8F08142462946204601F061FB62B60020BDE8F08100BF00000000000000008F
:20E4C0002DE9F04104460D4690461F4672B600F110062378042B2946204602D001F080FB11
:20E4E00040B939463046FFF7D3FA0028F1D062B6BDE8F08142462946204601F091FB62B662
:20E500000020BDE8F08100BF000000000000000001F04EBE00000000000000000000000009
:20E5200001220023027043600C30FFF791BB00BF10B5044672B6416001F052FE0223237072
:20E5400062B610BD00000000000000000000000010B5044672B601F0FBFE0123237062B6E6
:20E5600010BD00BF000000000000000000000000F0B585B00446DDE90B7572B600260295C0
:20E58000019703250A9F00978660057001F060FF431C0CBF05230223237062B605B0F0BD4C
:20E5A00070B582B00446069D72B60026009504258660057001F014FF431C0CBF0523022335
:20E5C000237062B602B070BD00000000000000000C30FFF7B5BB00BF000000000000000050
:20E5E0000C30FFF7B5BB00BF000000000000000002F0CEBD0000000000000000000000003D
:20E600000122002302704360704700BF0000000010B5044672B6416002F0D2FD02232370D8
:20E6200062B610BD00000000000000000000000010B5044672B602F03BFE0123237062B6C4
:20E6400010BD00BF00000000000000000000000010B5044672B602F053FE0323237062B6E3
:20E6600010BD00BF00000000000000000000000008B572B602F054FE62B608BD0000000008
:20E680000C30FFF79DBC00BF00000000000000000C304FF0FF33FFF793BC00BF000000007F
:20E6A0003030FFF725BD00BF000000000000000030304FF0FF33FFF71BBD00BF0000000005
:20E6C0000C30FFF75DBC00BF00000000000000000C304FF0FF31FFF753BC00BF00000000C1
:20E6E0003030FFF7BDBC00BF000000000000000030304FF0FF32FFF7B3BC00BF0000000098
:20E7000002F026BF00000000000000000000000070B50E4B044682B040F8043B01260094F6
:20E7200015460B46606004F1540104F10C0026728022FFF7E5FB00942B4604F1D40104F14E
:20E7400030008022FFF76CFC02B070BD900E040810B5044672B602F04BFF0223237262B6BB
:20E7600010BD00BF00000000000000000000000010B5044672B602F0C3FF0123237204F174
:20E780003000FFF75DFC04F10C00FFF7C9FBFFF777F862B610BD00BF000000000000000036
:20E7A00038B5436904460D463BB1294604F10C00FFF7C6FB00280BDB38BD04210844FFF7A6
:20E7C00047FB294604F10C00FFF7BAFB0028F3DA201D8021BDE83840FFF73ABB0000000001
:20E7E00010B5046AD4F8542813681978042900D010BD217A0229FBD111791A8901238B401A
:20E800001342F5D1D4E90F13A26B5B1A9B1AEFD062B6D4F854281179106804F1300200F08F
:20E82000EFF972B6D4F85438BDE810401979186800F00EBA000000000000000000000000B1
:20E8400010B5046AD4F8542813681978042900D010BD217A0229FBD15179588901228A403D
:20E860000242F5D103EB8103A269E169DB6860695B8A8A1A121A9342EAD862B6B2FBF3F2C5
:20E88000D4F8540803FB02F34179006804F10C0200F0A6F972B6D4F85438BDE81040597962
:20E8A000186800F0BDB900BF00000000000000000C30FFF785BB00BF000000000000000082
:20E8C0000C304FF0FF33FFF77BBB00BF000000003030FFF70DBC00BF0000000000000000C2
:20E8E00030304FF0FF33FFF703BC00BF000000000C30FFF745BB00BF0000000000000000E2
:20E900000C304FF0FF31FFF73BBB00BF000000003030FFF7A5BB00BF00000000000000002C
:20E9200030304FF0FF32FFF79BBB00BF00000000704700BF00000000000000000000000086
:20E9400010B503460E4A43F8042B82B001220446009000F15401436002720A4B0C304FF487
:20E960008062FFF7CDFA009404F2544104F13000054B4FF48062FFF753FB02B010BD00BFBD
:20E98000B00E040841E80008E1E70008000000000B6872B60A7903EB820290614A7909322D
:20E9A00043F822008A7912B103EB820398610223C0F85418037262B6704700BF000000007C
:20E9C00070B5D0F8543800F10C06044630461D68FFF7A6FA04F13000FFF732FB201D012139
:20E9E000FFF736FAD4F85438597905EB81032846DB6832465B8A00F0F3F8D4F854382846A4
:20EA00005979BDE8704000F00BB900BF0000000090F8443003F06003202B01D00020704717
:20EA200090F84530202BF9D3212B07D8074B836307220023C0E90F2301207047222BEDD155
:20EA40000023C0E90E330364012070470010002000EB810370B59C69BCB10E46054672B66D
:20EA60000821201DFFF7F4F9D4E90F13A26B5B1A9B1A0BD105EB8603DB685A6952681AB157
:20EA80001B8A013B134001D062B670BD62B604F130023146284600F0B3F872B63146284660
:20EAA00000F0D6F862B6F0E70000000000000000F8B501F1090350F8234094B107460E466D
:20EAC00072B604216018FFF7C3F907EB8603E569D968A2696369498AAA1AD21A914201D9AE
:20EAE00062B6F8BD62B6B2FBF1F3384601FB03F304F10C02314600F073F872B6314638463E
:20EB000000F08EF862B6ECE70000000000000000704700BF0000000000000000000000001E
:20EB200002F09EBA000000000000000000000000012200230270C0E901330C30FFF788B884
:20EB400001F076BE000000000000000000000000002301220270C36183620362C3624362A0
:20EB60000363C0E901337047000000000000000010B5044672B60023C0E90333C0E9053381
:20EB8000416001F06DFE0223237062B610BD00BF10B5044672B601F0F3FE0123237062B634
:20EBA00010BD00BF000000000000000000000000536910B42BB100241C605C609C60DC60D9
:20EBC0001C6193692BB100241C605C609C60DC601C6100EB81035DF8044BDA6001F078BF5A
:20EBE00030B400EB81040125E468A469E260002263602570A26030BC02F052B8000000009C
:20EC000030B400EB81040125E4686469E260002263602570A26030BC02F0B2B8000000005B
:20EC2000012270B502FA01F344899BB214EA030601D0104670BD2343438102F0A9F93046F3
:20EC400070BD00BF000000000000000000000000012270B502FA01F304899BB214EA0306AF
:20EC600001D0104670BD2343038102F0A1F9304670BD00BF00000000000000000000000068
:20EC800070B50223002504460370C564C0E90255C0E90455856180F8345001F0A9FE6368D8
:20ECA0001B6823B129462046BDE87040184770BD70B50023044680F8343000F1440201F0B1
:20ECC000DFFF63689B68002B2FD02046984760B3E16B94F8443094F84B0094F84A2042EAC1
:20ECE00000228A422CBF0A46E2631806E16800F19380002A77D08B69A06B0021042584F805
:20ED00003450D8605A6019709960204601F0C8FF72B6638913F0010105D143F001036381D3
:20ED2000204602F035F962B670BD94F8443013F06005184611D00021204602F061F900216D
:20ED4000204602F04DF963681B6813B1052120469847062384F8343070BD94F8451003F08E
:20ED60007F0242EA0122B2F5407F00F0108117D9B2F5C06F00F0F28040F29580B2F5106F47
:20ED80006FD040F602418A4200F0CE80B2F5006FD1D104F14F0201212564C4E90E219AE7AB
:20EDA000022A00F0A78040F29D80B2F5807F6BD0B2F5817FBFD194F84630002BBBD194F864
:20EDC000483013F00F0107D01E06204600F1F78002F026F994F844000023C4E90E33236466
:20EDE0000306E16832D44A690023052184F83410204619461370D360C2E9013301F0C0FFF5
:20EE000072B6238913F001018DD143F001032381204602F0CDF886E7C2B14B69A06B002103
:20EE2000012584F83450D8605A6019709960204601F0A6FF72B6238913EA05017FF473AFD0
:20EE40002B432381204602F0B3F86CE78A690023032184F8341019461370D360C2E901335C
:20EE600053E794F8463084F84F30002B40F09E800323237063681B68002BADD020460221AA
:20EE8000984794F84400A7E794F84630012B7FF452AFB4F84C30A56323F00203C4E90F553A
:20EEA000A4F84C309CE740F202339A4243D0B2F5A06F7FF440AFB4F84430B3F5A06F8BD116
:20EEC00094F8463084F84E30204601F0F1FD63681B6813B1012120469847032394F8440082
:20EEE000237079E7EAB904F14C0002212264C4E90E01F0E694F8483003F00F011B06204672
:20EF000057D401F09DFE012857D002287FF413AF304BA36302210023C4E90F1394F84430F5
:20EF2000D9E6012A7FF407AF2B4AA26302210022C4E90F12CFE694F84630002B7FF4FBAE33
:20EF400094F8483013F00F013FF446AF1D0620463AD402F045F894F844003DE794F84900E3
:20EF6000616894F848304E6894F8462094F8471043EA00232046B04700283FF4DCAED0E9EE
:20EF800000132564C4E90E3194F84430A3E694F84630012B7FF4CFAEB4F84C30A56343F0DF
:20EFA0000203C4E90F55A4F84C3019E70423237060E701F055FE0128A7D1084BA9E702F068
:20EFC0003FF894F8440007E702F01AF894F8440002E700BFD00E0408F00E0408E00E0408D2
:20EFE00090F8343010B50446062B1FD8DFE803F050260450501F5000C3689A690321002336
:20F0000084F83410204619461370D360C2E9013301F046FE72B6638913F0010105D143F07F
:20F0200001036381204601F0B3FF62B610BD036C03B19847002384F8343010BD90F84B0055
:20F0400094F84A20E16BE36842EA00229142D4D2188AB1FBF0F200FB1212002ACDD15B6981
:20F0600011461A70DA60C3E90122204601F088FE72B6238913F0010105D143F0010323813F
:20F08000204601F095FF62B6022384F8343010BD002101F0B5FF0021204601F0A1FF6368F2
:20F0A0001B6813B1052120469847062384F8343010BD00BF00000000000000000000000009
:20F0C00090F83420062A14D80123934013F0670F10B5044623D113F008020BD0C3689B69AE
:20F0E0009B682BB9036C03B19847002384F8343010BD7047DB06FBD5C3685B69052180F862
:20F10000341011461A70DA60C3E9012201F038FE72B6238913F0010112D062B610BD0021D9
:20F1200001F06EFF0021204601F05AFF63681B6813B1052120469847062384F8343010BD4D
:20F1400043F001032381204601F032FFE5E700BF430910B49B0000F1604404F5614403F1EF
:20F160006043090103F5614300F01F000122C9B284F8001302FA00F0C3F880015DF8044B3E
:20F18000186070470000000000000000000000000849430910B4203300F01F04012208440A
:20F1A000A240002441F8232080F800435DF8044B704700BF00E100E0000000000000000037
:20F1C00000F1604000F56D400901C9B20176704708B5074B074A196801F03D0199601368C5
:20F1E0000BB150689847BDE80840FFF799B800BF00600240901E0020000000000000000059
:20F20000084B094819688268890901F03D0110B58C019C600AB1C0689047BDE81040FFF72B
:20F220007FB800BF00600240901E002000000000084B094819680269090C01F03D0110B5CF
:20F240000C049C600AB140699047BDE81040FFF767B800BF00600240901E0020000000002E
:20F26000084B094819688269890D01F03D0110B58C059C600AB1C0699047BDE81040FFF7C1
:20F280004FB800BF00600240901E00200000000008B5074B07485968026A01F03D01D96045
:20F2A0000AB1406A9047BDE80840FFF739B800BF00600240901E002000000000000000000F
:20F2C000084B09485968826A890901F03D0110B58C01DC600AB1C06A9047BDE81040FFF7E7
:20F2E0001FB800BF00600240901E002000000000084B09485968026B090C01F03D0110B52D
:20F300000C04DC600AB1406B9047BDE81040FFF707B800BF00600240901E0020000000008B
:20F32000084B09485968826B890D01F03D0110B58C05DC600AB1C06B9047BDE81040FEF77D
:20F34000EFBF00BF00600240901E00200000000008B5074B07481968026C01F03D0199605B
:20F360000AB1406C9047BDE80840FEF7D9BF00BF00640240901E00200000000000000000A2
:20F38000084B09481968826C890901F03D0110B58C019C600AB1C06C9047BDE81040FEF7A3
:20F3A000BFBF00BF00640240901E002000000000084B09481968026D090C01F03D0110B5FF
:20F3C0000C049C600AB1406D9047BDE81040FEF7A7BF00BF00640240901E0020000000005F
:20F3E000084B09481968826D890D01F03D0110B58C059C600AB1C06D9047BDE81040FEF739
:20F400008FBF00BF00640240901E00200000000008B5074B07485968026E01F03D01D96074
:20F420000AB1406E9047BDE80840FEF779BF00BF00640240901E002000000000000000003F
:20F44000084B09485968826E890901F03D0110B58C01DC600AB1C06E9047BDE81040FEF75E
:20F460005FBF00BF00640240901E002000000000084B09485968026F090C01F03D0110B55C
:20F480000C04DC600AB1406F9047BDE81040FEF747BF00BF00640240901E002000000000BC
:20F4A000084B09485968826F890D01F03D0110B58C05DC600AB1C06F9047BDE81040FEF7F4
:20F4C0002FBF00BF00640240901E0020000000000E490F4A0F48002310B40B600E4C1946F9
:20F4E00001E052F80C0C016044F833100133102B02F10C02F5D10949094A5DF8044B4FF02B
:20F50000FF338B60CB609360D3607047101F00200C0F040810600240901E0020006002402E
:20F5200000640240000000000000000000000000F8B5204F467AD7F800C0012404FA06F59C
:20F5400015EA0C0F33D11C4C45EA0C0504EBC60C15F0FF0F3D6044F83620CCF8043004D016
:20F56000164C236B43F40013236315F47F4F16D105682B6823F01F032B602C6814F00104B0
:20F58000FBD1077A46683D23BB40212733602C606F6152B1807AFFF7DBFD2046F8BD074CA5
:20F5A000236B43F480032363E2E71046F8BD2046F8BD00BF101F0020901E00200038024038
:20F5C00010B50446807AFFF7E3FD0C49607A0B680122824023EA020313F0FF0F0B6004D162
:20F5E00007490A6B22F400120A6313F47F4F04D1034A136B23F48003136310BD101F002010
:20F6000000380240000000000000000000000000184B4FF0FF311A69002210B519611A613F
:20F62000586959615A61186A134C60F0805018621A62586A59625A62196C41F08051196460
:20F64000216841F480712160196F01F44071B1F5007F03D04FF4803119671A67064C636842
:20F6600023F400736360FFF733FF236843F0F003236010BD003802400070004000000000EA
:20F680002A4B2B4A4FF080504FF44041186411601A6842F001021A601A689207FCD59968A2
:20F6A000224A21F00301996099689960936813F00C03FBD110681D4900F0F90010609360D3
:20F6C000136843F4803313600B689803FCD54B6F164A43F001034B67536F9907FCD5154BDD
:20F6E00053601368124943F0807313604B685A04FCD50E490B689B01FCD50F4B0F4A8A6032
:20F7000040F205721A608B68084A43F002038B60936803F00C03082BFAD1536C43F48043AA
:20F720005364536E43F480435366704700380240007000400C544007003C02400094883844
:20F7400008B572B6FDF7FCFE62B6BDE80840FEF7E7BD00BF00000000000000000000000079
:20F76000054B44F29F11002007225960986003210B201A60FFF724BD10E000E000000000E9
:20F78000F0B4444D444C2B6C43F000732B64D4F800321B0C1B0443F0010343EA0023C4F851
:20F7A000003200295BD00023C4F81C321846C4F80432C4F80C32C4F814321C46C30003F131
:20F7C000804303F5C84301301C28C3F84042C3F84442F3D1304D0026012710681479C30019
:20F7E00003F1804314F0010F03F5C84306F1010607FA00F005D0D5F804C24CEA000CC5F8E5
:20F8000004C214F0020F05D0D5F80CC24CEA000CC5F80CC2640704D5D5F814420443C5F865
:20F8200014429468C3F84042D468C3F84442D5F81C32B14240EA030002F11002C5F81C02A1
:20F84000CBD11549134AD1F8003223F00103C1F80032136C23F000731364F0BC7047C200B3
:20F8600002F18042012302F5C842834043F00103C4F84012C4F84412C2F84012C2F8441278
:20F88000C4F80412C4F81412C4F80C32C4F81C32D7E700BF00380240006400400000000015
:20F8A000164BDA6A936810B513F00104936005D013F00C0F14BF4FF480340124D90506D54D
:20F8C00013F4406F14BF44F4003444F00204DA0306D513F4402F14BF44F4802444F00404E0
:20F8E00072B600210648FEF7FBF821460548FEF7AFFA62B6BDE81040FEF712BD141F002013
:20F900001C1F0020301F0020000000000000000038B5124CE36ADD68AA070DD1EB0607D5E4
:20F92000E36A1021D96072B60D48FEF791FA62B6BDE83840FEF7F4BC5A6922F002025A61A5
:20F9400072B6002104F11000FEF7CAF804F118000121FEF77DFA62B6E0E700BF141F002016
:20F96000341F002000000000000000000000000038B5124CE36A1D69AA070DD1EB0607D59A
:20F98000E36A1021196172B60D48FEF761FA62B6BDE83840FEF7C4BC5A6922F010025A6156
:20F9A00072B6002104F11000FEF79AF804F118000221FEF74DFA62B6E0E700BF141F002015
:20F9C000341F002000000000000000000000000038B5174DEB6A5C681C225A60220719D43C
:20F9E000630713D5EA6A9369916921F07001916113F0700F03F0070118BF41F0080172B641
:20FA00000C4841EA0341FEF723FA62B6BDE83840FEF786BC1A68284622F00202032100F883
:20FA2000281B1A6072B60021FEF712FA62B6D7E7141F0020341F0020000000000000000023
:20FA400010B5064C2046FEF7CBFC0022044BE36211460E20BDE81040FFF792BE141F0020A4
:20FA600000640040000000000000000000000000184B984210B5044615D0E36A01221A60C7
:20FA80005A68D10707D401210820FDF749FEE36A5A68D207F7D562680F49D2E90020D86182
:20FAA0001A60596110BD0B211320FFF751FB0B211420FFF74DFB0B211520FFF749FB0B213F
:20FAC0001620FFF745FB054A136C43F000731364D3E700BF141F00205B8F0100003802409E
:20FAE00008B50378032B00D008BD0D4B9842FBD10C4B0D4A1A6000225A611320FFF748FB9C
:20FB00001420FFF745FB1520FFF742FB1620FFF73FFB064A136C23F00073136408BD00BF5D
:20FB2000141F002000640040020001000038024003291AD8DFE801F0110C0702C36A986828
:20FB4000C0F300707047C36A9868C0F3C0607047C36A9868C0F380607047C36A9B6813F06A
:20FB6000E05F14BF0120002070470020704700BF032934D8DFE801F0232B1F02C16A01F565
:20FB8000D071107810B4C0F3001384064FEA430321D5546843EAC40343F00403D2E902422A
:20FBA00000F00F0043F0010348608C60CA605DF8044B0B607047C16A01F5C871E1E7C16A3E
:20FBC0008B68C3F30163183301EB0311D9E7C16A01F5C071D5E7948843EA4453DEE77047A3
:20FBE000012911D00AD3022906D1C36A186910F0030018BF0120704700207047C36ADA6875
:20FC00009207F3D001207047C36AD86810F0030018BF0120704700BF0000000000000000D2
:20FC200030B400292FD1C36AD968880744D0D3F8B001D3F8B411D3F8B841D3F8BC51D460CA
:20FC400020241561DC60DC68A50703D15C6944F002045C611379440864F30413840864F305
:20FC6000451313719B062BD59368C00860F31C0393601379080A61F30303090C13711070CE
:20FC8000518030BC7047012920D00229F9D1C36AD3F8C001D3F8C411D3F8C841D3F8CC51CC
:20FCA000D460202415611C611C69A407D2D15C6944F010045C61CDE719698907E8D1E0E7F6
:20FCC0001389400D60F30A031381D2E7C36AAEE76849694A694B70B40D6B40F2FF16354359
:20FCE0000D630C6D34430C654168516081689160C168D160016951614169116281695162CF
:20FD000001681160026A5A60426A9A60826ADA60C26A5A61026B1A62426B5A62C2691A6039
:20FD2000C26BC3F80424026CC3F80824426CC3F80C24826CC3F81424C26CC3F82024026D48
:20FD4000C3F82424826BC3F8002403F50063826D5A60C26D9A60026EDA60426E5A61826EA2
:20FD60001A62C26E5A62426D1A60426FC3F80424826FC3F80824C26FC3F80C24D0F8802002
:20FD8000C3F81424D0F88420C3F82024D0F88820C3F82424026FC3F80024D0F89020C3F80F
:20FDA0000428D0F89420C3F80828D0F89820C3F80C28D0F89C20C3F81428D0F8A020C3F883
:20FDC0002028D0F8A420C3F82428D0F88C20C3F8002803F54063D0F8AC205A60D0F8B02070
:20FDE0009A60D0F8B420DA60D0F8B8205A61D0F8BC201A62D0F8C0205A62D0F8A8201A604A
:20FE0000D0F8C820C3F80424D0F8CC20C3F80824D0F8D020C3F80C24D0F8D420C3F8142462
:20FE2000D0F8D820C3F82024D0F8DC20C3F82424D0F8C420C3F80024D0F8E420C3F80428FE
:20FE4000D0F8E820C3F80828D0F8EC20C3F80C28D0F8F020C3F81428D0F8F420C3F8202876
:20FE6000D0F8F820C3F82428D0F8E020C3F8002870BC70470038024000000240000402400B
:20FE80002DE9F04F02F0030CC2F38007C2F3C106C2F341150024C2F3C3124FF00F0E4FF000
:20FEA00001094FF0030830E0D0F820B00BEA0A0A4AEA03030362436809FA04FA23EA0A03D8
:20FEC0003B4343606300D0F808A008FA03F3DB430AEA030A4AEA060AC0F808A0D0F80CA0FF
:20FEE00003EA0A0A4AEA050AC0F80CA0D0F800A003EA0A0343EA0C03036049081BD07F009E
:20FF0000B600AD004FEA8C0C013404F007039B000EFA03FA11F0010F02FA03F36FEA0A0A6A
:20FF2000EBD0072CC0D9D0F824B00BEA0A0A4AEA03034362BFE7BDE8F08F00BF000000002D
:20FF400011F00C0F38B50546446B12D1296B0A68136823F01F0313601368DB07FCD4087AE3
:20FF60004A683D2383401360636843F40073636038BD0248FDF7DCFAE8E700BFC00F04088F
:20FF800011F00C0F38B50546446B21D1EA6A1368196821F01F011960196811F00101FBD122
:20FFA000107A52683D2383401360636823F480536360236823F480632360236843F40073B2
:20FFC000236072B605F11C00FDF752FD62B638BD0148FDF7ADFAD9E7C00F04080000000095
:20FFE0003748384A38B5446BA369656945EA034323F07F43934250D022D8073A934240D02B
:020000040801F1
:200000000132934214D16268C36A22F400721B6862601A6842F001021A60626842F480522C
:2000200062605B68012B03D8236823F48063236015F00A0F18BFA369BDE83840FEF770B9F0
:20004000214A934212D002329342F1D1C36A1B68596839B32368028C43F4A06342F00102CE
:2000600002842360BDE83840FEF75AB96368026B23F4007312686360136843F0010313602E
:20008000D6E7038C1A0A0BD003F0010343F0F00302F0060213432361CAE7038CC3F34703E4
:2000A0002361C5E7636823F400736360236843F40073236072B61C30FDF7DAFC62B6B7E74C
:2000C000441F00200800030082000700000000003248F8B5D0E90C756C693A6804F45F4397
:2000E000DB436B61136823F01F031360A1B21368DB07FCD43A7AC66A7F683D2393403268DB
:200100003B60136823F01F0313601368DF07FCD4377A72683D23BB40136011F4807318BFC8
:2001200001238A05836044BF43F0020383604F050AD56A6822F400726A602A6843F00403E8
:2001400042F400722A6083600E0544BF43F0080383604D0444BF43F020038360CA0424B222
:200160000FD543F01003002C836012DB72B66FF001010B48FDF77CFC62B6BDE8F840FEF727
:20018000CFB8002C05DB002BF0D1BDE8F840FEF7C7B843F040038360E8E700BF441F002025
:2001A000601F002000000000000000000000000010B5074C2046FEF7B3F9064B064A62631B
:2001C000002103F13C02E161C4E90B3210BD00BF441F0020180F04080058004000000000C6
:2001E000F8B50378456B40F256428262012B40F21642044642623CD02B46D4E90B126068B6
:200200000F68D2F800C04168464E05F11002BA604FF41064CCF808204FF4004700222F60A0
:200220002A606C605C684FF6C0773C40077A5C605C68B14244F02A045C6049DD3A4CA1420B
:2002400007DC022F56D0032F5FD048F6FF720D211962DA6101781A68022992B244D00329C6
:200260003FD0012930D01A602B6843F001032B60F8BD2E4B9842BFD12D4EC06A336A2D4A25
:2002800043F4800300213362234631620521FFF74FF9294A206B23460521FFF749F9336C2A
:2002A00043F48003336405212120FEF751FF05212220FEF74DFF616A2048A26A636B014347
:2002C0000243C4E9091298E722F00A0292B2CAE72B2449001A4A1C62B2FBF1F2C2F30B02B3
:2002E000B7E742F00A02BEE722F0080292B242F00202B8E701EB4101114AB2FBF1F26FEAD6
:2003000042426FEA524292B2A1E701EB810202EB82010B4AB2FBF1F26FEA82426FEA924292
:2003200092B294E7A0860100801A0600441F00200038024081FF000841FF00080000030E59
:2003400080DE800200000000000000000000000038B50378012B2DD0D0E90C1300240A68BE
:200360004FF400451D601C605C605C61136823F01F0313601368DC07FCD40A7AC56A4C68CB
:200380003D2393402A682360136823F01F0313601368DB07FCD40446287A6A683D238340E4
:2003A00013600846FFF70CF9E06AFFF709F9084B9C4200D038BD2120FEF7EAFE2220FEF7F4
:2003C000E7FE044A136C23F48003136438BD00BF441F0020003802400000000000000000A9
:2003E0004900F0B441F001010024018484600499446B62B6C56A476A2E68114D3760F2602F
:200400007360AA6A00E062B672B6A3699E0702D423689B0508D5AB6A9B1AB3F5FA7FF2D396
:200420004FF0FF30F0BC7047636843F400736360236843F4A06323601C30F0BCFDF708BBBC
:20044000101C0020000000000000000000000000F0B549000024018484609E46446BDDF86D
:200460001CC0DDE9051762B6D0E90B352E681D68836A3360436AF260124AC6F804E02B608A
:20048000E9606F60956A00E062B672B6A369990702D423689B0507D5936A5B1BB3F5FA7F08
:2004A000F2D34FF0FF30F0BD636843F400736360236843F48073236061461C30BDE8F04024
:2004C000FDF7C6BA101C002000000000000000002DE9F04FAC4BAD4A9B69056D9A6187B071
:2004E00072B600F16003A946059305462B78012B05D0EB6D63B9D9F81430DA0608D4D9F8F4
:200500001830059843F01003C9F81830FDF790FA62B64FF0000AD9F81430DB0657D52A6D0F
:20052000136A03F4F011B1F5802F24D0B1F5402FF1D103F00F0105EB8101C3F30A13C968AD
:2005400003339B080C6AE6D002F5805202211668581E49B1034644F8046B0139002BDAD0B9
:200560001668581E0029F5D10028D4D0023B1068002BF5D1CFE703F00F0605EB8606C3F336
:200580000A14F3689F693B78F868002B38D1D7E9011CCE1CE11CA6EB0C0689084FEA9606C6
:2005A0000DD002F5805286469046D8F800204B1EF6B119464EF8042B013E0029F5D120448D
:2005C000F860D9F814306444DB06BC60A7D4EB6D012202FA0AF61E424AD10AEB020302930D
:2005E0006B6D9DF808A09B689A4594D972B67DE7002BE4D00239D8F800300029D5D1DEE75D
:200600003CB3416902F58052A446BCF1030F07D903698B4204D8C1684161BCF1030FF7D881
:20062000D2F800E000232EFA03F701F10108C0F814800F70D0E904178F4224BFC1684161B2
:20064000BCF1010C03F1080303D0202B4169EAD1DBE772B68368234483600021FDF740FAF0
:20066000FDF70EF962B6F3689F69D7F808C0A8E772B6D9F80820EB6D22F0010223EA06033A
:20068000C9F80820EB6562B605EB8A031F46D9684A69D2E90130984280F0AD80D5F850E0D3
:2006A0000C8A4FEA4A180EEB080C1B1ADCF818099C4228BF1C4683B2B4EB830F00F2A6802D
:2006C0000AF1010302931B03CDE903960193B946019E1378D068B644002B75D0FCB1D0F845
:2006E00010B022469708836955D0BBEB030148BF03318E10BE4228BF3E46B100521A002EE9
:2007000073D0194453F8046BCEF800608B42F9D1594581613CD3C3688361002AE2D172B61F
:200720008368234483600021FDF7DAF9FDF7A8F862B6D9F80C104A69D2E901031C44A0424F
:20074000946054D9D5F850E0B1F810C00EEB080A041BDAF81839644528BF64469BB2B4EB8F
:20076000830FB5D9DDE90396002272B6D9F8083043F00103C9F8083022B9D9F834381E43FE
:20078000C9F8346862B62BE7101C002010100408002AC4D00B4600210E465F1C87611B78E0
:2007A0005F4503FA01F346EA030624BFC3688361013A04D0182902D008318369EDE7CEF898
:2007C0000060002A8ED1AAE7E31C9B080AD000EB8301034653F8046BCEF800608B42F9D1F4
:2007E000D9F80C102044D060A5E7194690E7DDE903960122B9E772B6D9F808300AF10102C5
:2008000043F001030292C9F80830BBE772B6D9F808300AF1010243F001030292C9F808307F
:20082000ABE700BF00000000000000000000000010B5064C2046FEF78BF94FF0A043044A01
:20084000236500236265C4E9183310BD801F00200010040800000000000000000000000086
:200860000378012B00D07047F0B53D4B066D984283B0054654D0344600233A4AEB653A493A
:20088000F2604FF43412C6F800182020C6F8003EB263FCF77DFE012323612369DB07FCD402
:2008A0000C20FCF775FE2369002BFCDAD5E914739C68002319460134B3601A464FF0FF3038
:2008C00007EB41130131A142C3F80029C3F81029C3F80809C3F8002BC3F8102BC3F8080B6F
:2008E000EED16B68DB684FF00111C7F81C18C6F81028C6F81428C6F81C286BB143F2080391
:20090000B3616B6E4FF0FF327261D3B1B36843F00103B36003B0F0BD4FF44053B361F0E79D
:20092000124B5A6B42F080025A635A69002042F080025A610E2158614320FEF709FC2C6DF4
:200940009AE70B4B00957E224FF4067105F16800FCF7D6FF6866FCF7B3FEFCF791FFD5E7FA
:20096000801F0020401400400300200200380240D1040108000000000000000000000000A7
:200980000378012B26D070B5D0E914539E68002101360A464FF0FF3405EB41130131B142EC
:2009A000C3F80029C3F81029C3F80849C3F8002BC3F8102BC3F8084BEED10B4B4FF0011103
:2009C0009842C5F81C18C265C5F81C28AA60AA6301D070BD70474320FEF7DAFB034A536B20
:2009E00023F08003536370BD801F002000380240F8B5056D202306462B612C6914F020044E
:200A0000FBD10C20FCF7C4FD776DC5F83448BA684FF001112346C5F81C18541C4FF0006031
:200A20004FF0FF3105EB431201339C42C2F80009C2F8000BC2F80819C2F8081BF2D13B684A
:200A4000B3653B68326D6B6210231361146914F01004FBD10C20FCF79BFDD5F80038114A50
:200A6000114923F4FE63C5F80038AB6943F4402343F01003AB610923C5F81038C5F8143875
:200A8000F160C5F8104BC5F8002BC5F81049C5F80029B36D03F1100243F48013B265AB62F5
:200AA000F8BD00BF40800010D00F040800000000026D90F84E10D2F8003823F4FE6343EA0B
:200AC0000113C2F80038704700000000000000002DE9F8430FFA81F800EB88070D46FB6856
:200AE0001A6802F00302022A00F09780032A00F091804B4C4B49012A0CBFA1468946046DD4
:200B0000DE68690162184FF0000CC2F810CB05F110024FF0010C0CFA02F2002E4BD0B3F889
:200B200012C005F1580676014CEA090C44F806C0D4F81C683243C4F81C286618D3F808C0F5
:200B40000022A901C6F8102941F020016A1EBCF1000F3FD0B3F81CC01E8ABCF1010F4FEA08
:200B6000960302F14002866D88BF0CFB03F304EB820203EB060C46EA0343C0F858C0536004
:200B8000216123699A06FCD40C20FCF701FDFB681A8A05F1480342EA85525B0142EA0902DC
:200BA000E2500121D4F81C3801FA05F51D43C4F81C58BDE8F88304EB481CDCF8006B26F470
:200BC0000046CCF8006BD4F81C6826EA0202C4F81C28B2E705F13F0304EB8303124A5A60E0
:200BE000216123699B06FCD404EB48180C20FCF7CFFCD8F8003923F40043C8F80039D4F815
:200C00001C38012101FA05F523EA0505C4F81C58BDE8F883DFF8149071E7DFF814906EE75F
:200C200000800410008000100004000200800C100080081000000000000000000000000056
:200C40005831036D49015B5813F4004004D013F4001F14BF01200220704700BF00000000D1
:200C60004831036D49015B5813F4004004D013F4001F14BF01200220704700BF00000000C1
:200C800000EB8101CB681B6A19685B6853601160704700BF00000000000000000000000051
:200CA00000EB810370B4DE68B5696A682A6129B9402A03D94022094C6A6001E042F0C04420
:200CC000758A006D6B1E00EB41111344B3FBF5F344EAC343C1F8103B70BC7047400000603A
:200CE0002DE9F041224E376D07EB40130546D3F8084BC3F8084B20070AD5D7F8143819079C
:200D000006D506EB85032946DB6830465B689847E2072BD5D7F81438DB0727D506EB85035A
:200D2000D9688B6958681A6990420CD37389CC680F480122AA4023EA020373812946234618
:200D4000BDE8F0411847121A0021C3E9012108482946FFF7A5FF72B6336D03EB4515D5F80D
:200D6000003B43F08063C5F8003B62B6BDE8F081801F00200000000000000000000000003D
:200D800000EB810310B4DC68026D6069436803619BB169B1208A5DF8044B02EB4112411E42
:200DA0001944B1FBF0F143EAC143C2F810397047402B84BF40234360ECE702EB41124FF454
:200DC0000023C2F810395DF8044B7047000000002DE9F0412C4E356D05EB40130746D3F8D4
:200DE0000849C3F80849E10716D5D5F81038DA0712D506EB8003D9684B6958681A69904268
:200E000026D33389D1F808800122BA4023EA0203338139463046C047230606D50123D5F8F8
:200E2000342803FA07F7174201D1BDE8F08172B6D5F83428F36D154822EA0702C5F83428DE
:200E40001F430021F765FCF713FE62B6BDE8F081121A0021C3E9012130463946FFF790FFEC
:200E600072B6326D02EB47100123D0F8001941F00441C0F80019D2F83418BB400B43C2F802
:200E8000343862B6C8E700BF801F0020E01F002070B53A4E356D6C69AB691C40E1046C613C
:200EA00035D4A20448BFD5F80838230704D57368DB680BB131489847E60619D46003D5F831
:200EC000185807D5E90754D4AA074ED46B0748D42E0733D4240307D5E8033ED4A90333D45E
:200EE0006A0336D42B0322D4BDE87040FDF718BA72B6AB69224823F01003AB610021FCF750
:200F0000B7FD62B66003D5F81858E3D5DAE700243046F465FDF7B4FE73681B68002BE3D017
:200F2000214630469847BDE87040FDF7F9B90320FFF7D6FEBDE87040FDF7F2B90320FFF700
:200F400047FF2403D0D5C7E70120FFF7C9FE6A03C8D50220FFF7C4FEC4E70020FFF7C0FE90
:200F6000BCE70220FFF734FFB2E70120FFF730FFACE70020FFF72CFFA6E700BF801F0020C5
:200F8000E01F0020000000000000000000000000036D03EB4111D1F8003B43F08063C1F8AF
:200FA000003B7047000000000000000000000000026D10B402EB41140123D4F8000940F0A1
:200FC0000440C4F80009D2F834085DF8044B03FA01F10143C2F83418704700BF00000000AF
:200FE000036D03EB4111D1F8003B43F40013C1F8003B704700000000000000000000000048
:20100000036D03EB4111D1F8003943F40013C1F8003970470000000000000000000000002B
:20102000036D03EB4111D1F8003B23F40013C1F8003B704700000000000000000000000027
:20104000036D03EB4111D1F8003923F40013C1F8003970470000000000000000000000000B
:2010600010B50A4C0A4B4FF6FF7220461A80FDF75FFD084B08480949094AE06103F1240059
:20108000C4E90830C4E90A1210BD00BF1C2200204C220020600F0408003001401600010621
:2010A00046000106000000000000000000000000C36841681A69F0B5DD680E7D1540EAB226
:2010C000D2431A6183B0044605F0020305F004077EB9002F2CD00278042A24D07BB9EB07E5
:2010E00005D5636820461B6998470323237003B0F0BD53B10378042B04D0002FEFD00423D2
:201100002370ECE78B68E3B19847002FE7D02378042BF4D16168CB68002BF0D02046984762
:2011200004232370DBE78A6842B101939047019B002BD4D02378042BE1D1EBE7002BCED061
:20114000E9E7002FCBD0E6E7000000000000000008B50348FFF7ACFFBDE80840FDF7E0B806
:201160005022002000000000000000000000000008B50348FFF79CFFBDE80840FDF7D0B8DB
:201180006822002000000000000000000000000038B5064D064C2846FDF732FA054BEB60EA
:2011A0002046FDF72DFA044BE36038BD502200206822002000080040004001400000000022
:2011C0000378012B70B504463AD0C36800221A605A639A635A62D4E9011288690D7D20F057
:2011E000FF0000261E61D8604868B2FBF0F24FF6FF70013A9A620A78D8626DB940F20120B4
:20120000542198619960C2B113221A6203F138023433C4E9042370BD4FF4817064219861FB
:2012200099603AB131221A6203F134023833C4E9042370BD13221A62F6E731221A62E5E73C
:20124000164B984204D0164B984214D0E368C2E7144B1A6C42F004021A641A6A002042F0FB
:2012600004021A62072118621E20FDF771FF0E4BA360E368AFE70B4B5A6C42F480325A64A9
:201280005A6A002042F480325A62072158621820FDF75EFF054BA360D8E700BF50220020F8
:2012A000682200200038024000BD0105007A030A08B50378022B00D008BD0E49C368002222
:2012C00088421A60DA601A610BD00B4B9842F3D11820FDF75DFF094A536C23F4803353642B
:2012E00008BD1E20FDF754FF044A136C23F00403136408BD502200206822002000380240CB
:20130000C3685A69002042F0010205215A6118611960704700000000000000000000000000
:20132000C268D36810B413F0FF040CD1416814610C7D886854B970B143F00603096909B174
:2013400043F00103D3605DF8044B70470028F3D143F00403F2E743F00203EFE700000000BB
:20136000024AD36843F08003D360704700100140024AD36843F08003D36070470048004046
:20138000024AD36843F08003D3607047004C0040024AD36843F08003D360704700500040E3
:2013A000024AD36843F08003D3607047001401402DE9F041D0F85451EF682B68DA050646E8
:2013C0009CB246D472B614F02F0F2CD006F1040807E0A00669681DD42C68A4B214F02F0FC1
:2013E00021D02307F5D014F0080F0CBF00218021E00748BF41F02001A20748BF41F0400103
:20140000630748BF41F480714046FCF721FDA0066968E1D5C9B23046FDF7C2F92C68A4B2E7
:2014200014F02F0FDDD162B6390601D522061BD463060CD572B6D6E911239A421ED04FF604
:20144000BF731F406FF04003EF602B6062B6BDE8F08172B64FF400710430FCF7F9FC6FF4F6
:2014600080732B6062B6ADE772B606F13000FCF71FFE00280ADB686062B6D9E7B36B002BED
:20148000DDD0301D1021FCF7E3FCD8E70821301DFCF7DEFC4FF63F733B4043F04003EB601A
:2014A000EAE700BF00000000000000000000000008B50348FFF77CFFBDE80840FCF730BF54
:2014C0008022002000000000000000000000000008B50348FFF76CFFBDE80840FCF720BF22
:2014E000D823002000000000000000000000000008B50348FFF75CFFBDE80840FCF710BFC9
:201500003025002000000000000000000000000008B50348FFF74CFFBDE80840FCF700BF6E
:201520008826002000000000000000000000000008B50348FFF73CFFBDE80840FCF7F0BE16
:20154000E0270020000000000000000000000000F8B5174C174F184A184E194D2046002139
:20156000FDF7D6F8174B184AC4F8543138460021FDF7CEF8154C164B164AC7F8543130466F
:201580000021FDF7C5F8144B144AC6F8543128460021FDF7BDF8124B124AC5F854312046E0
:2015A0000021FDF7B5F8104BC4F85431F8BD00BF80220020D823002061130108302500208A
:2015C000882600200010014071130108E02700200048004081130108004C004091130108DA
:2015E00000500040A1130108001401400000000038B5374C037A002918BF0C46012B054693
:2016000024D0D5F85431334920688B4219D0324A934216D0314AB2FBF0F29A60A288E088FD
:20162000218942F4045242F02C0240F0400041F00101002418615961DA601C601A685B681F
:2016400038BD274AB2FBF0F29A60E7E7254B984233D0254B984226D0244B98420FD0244BA9
:20166000984216D0234B9842CBD1234A536C43F02003536404214720FDF76AFDC1E71E4A96
:20168000136C43F40023136404213420FDF760FDB7E7194A136C43F48013136404213520F5
:2016A000FDF756FDADE7144A136C43F48023136404212720FDF74CFDA3E70F4A536C43F0A3
:2016C0001003536404212520FDF742FD99E700BF20100408001001400014014080DE8002A2
:2016E00000BD010580220020D82300203025002088260020E0270020003802400000000066
:20170000037A022B00D070471E49D0F8543100228842DA601A615A6113D01B4B984220D075
:201720001A4B984225D01A4B984212D0194B9842E9D1194A536C23F0200353644720FDF7F2
:2017400027BD154A536C23F0100353642520FDF71FBD114A136C23F4801313643520FDF751
:2017600017BD0D4A136C23F4802313642720FDF70FBD094A136C23F4002313643420FDF7BC
:2017800007BD00BF80220020D82300203025002088260020E0270020003802400000000005
:2017A00010B504460846FCF7F3FC00B110BD0C2323604FF0FF3010BD00000000000000007F
:2017C000FDF75EBF000000000000000000000000704700BF00000000000000000000000082
:2017E000F8B500214FF00060284C23F049F88025FCF7C6FD4026FBF74BFE4FF47A70FCF798
:20180000E7F817F09DF86583668316F079FA06F0B7FF0DF025FB0E282DD009F059F900F0CC
:20182000FFFA0AF075FB16F043FE074606F0F0FF384617F03DFB18F00BFF384616F068FE13
:2018400017F02EFB124F437D3B7041F270706683FCF7BEF80F4E258304E00DF009FA64207A
:20186000FCF7B6F83378002BF9D13B78002BF4D00DF046FAF3E74FF47A70FCF7A9F8258305
:2018800040F2EE20FCF7A4F86583F4E7000802403829002039290020000000000000000069
:2018A000022906D0032906D00129064818BF0020704705487047032A9ABF044800EBC2007C
